:020000040000FA
:060000000201070221FBD2
:0300130002266A58
:03002B0002262981
:030033000226039F
:0300530002226E18
:03006B0002264F1B
:10008300022067E5C754F84401F5C779012200004F
:100093000080FB120086B900030200F1E4792178A5
:1000A30008B800028004F709D8FCE479297802B87B
:1000B30000028004F709D8FCE49002817890790863
:1000C3008002F0A3D8FCD9FA7A107B0A9001377822
:1000D3006479048015E493A3AD82AE838A828B8313
:1000E300F0A3AA82AB838D828E83D8E9D9E7758288
:1000F300BC7583A67403120119758291758300740C
:100103000012011975D00075813F751881751902A8
:10011300759F00020096C09FF59FE473D09F22D085
:1001230083D082C09FE493C0E0740193C0E0740263
:1001330093F59F22110199010F12640401020482B5
:10014300010000EA8102FA81010000150A023682E9
:10015300010000160A02FC810300008A02020C82DD
:10016300010000170AFF0000B4000028002800283F
:100173003075A000A000A000A00000080008E00166
:10018300F0001000100010001000100010005000CC
:100193005000500010001000D007000000000000C5
:1001A3000F0001000500307507001000010081FFFA
:1001B30000000000FFD406F206DA06FF020202087E
:1001C300025000A0000000E803020482010000EDD9
:1001D3008102FA81010000980A02FE81010000C237
:1001E3000202FA81010000990A020082010000D88C
:1001F3000202FA810100009A0A020282010000DA77
:100203000202FA810100009B0A023882080000DB27
:100213000202FA810100009C0A0206820100009D8D
:100223000AFF0100FF20020482010000F08102FAAC
:1002330081010000010B020882000000000002FCA3
:100243008103000028038C0C8C0C8C0C8C0C8C0C04
:100253008C0C8C0C8C0C8C0C8C0C8C0C8C0C8C0CDB
:100263000E0F260F080F020202020202020202010F
:100273000D0000001001020482010000E48102FA73
:1002830081010000420B0214820100004F0702FAB1
:1002930081010000430B0216820100006B8102FA08
:1002A30081010000440B0218820100005D8102FA03
:1002B30081010000450B021A820100000D8102FA40
:1002C30081010000460B023A82010000E98002FA34
:1002D30081010000470B023482010000D78002FA3B
:1002E30081010000480B023282010000FB8002FA08
:1002F30081010000490B0230820100004F8102FAA4
:10030300810100004A0B022E820100004B0B01E821
:1003130003053F100A013C1100000206094D414B41
:1003230045590201050319C103050212180F1800EC
:100333000000000196119C1100003F0202192A04DB
:1003430006011200010E0002120E120A000302043B
:1003530082010000E78102F8810100001D0902FA11
:1003630081010000170C022482400000C08102FAC0
:10037300810100001B0C0228828000001F0902FA81
:10038300810100001C0C022C82C000001D0C02FA2B
:1003930081010000180C0226824000000080020A3E
:1003A30082010000190C02FA810100001E0C022ACE
:1003B30082400000200902FC818100002109020C17
:1003C300820100001F0C02FA81010000210C022AA5
:1003D30082C000002709020C82010000220C02FAED
:1003E30081010000240C021E82400000280902FC47
:1003F30081810000290902FA81010000250C0222F3
:1004030082C000002F0902FA81010000260C02209D
:1004130082400000300902FC81810000310902FAA8
:1004230081010000270C022A82C000003709020C58
:1004330082010000280CFFFFFF0001307503020159
:1004430006000000000000000000000000000000A3
:1004530000000000000000000000000000FFFF0695
:1004630000800CE8030410020482010000F38102FF
:10047300FA81010000410D023E82800000050A025C
:10048300FA81010000420D024082000000090A02C5
:10049300FC818100000A0A120122057C001201225C
:1004A300357C00120122487C00120122787C001264
:1004B3000122F77C00120122187D00120122BF7D68
:1004C30000120122557E00120122CA7E001201226F
:1004D3009A7F00120122E59603120122FC96031271
:1004E30001222D970312012268970312012292978A
:1004F30003120122BC9703120122D3970312012294
:10050300EA97031201220198031201222A98031287
:1005130001223D9803120122539803120122669887
:10052300031201228D9803120122E2B20212012268
:10053300E6B3021201221EB40212012241B40212D6
:1005430001224CB4021201226FB4021201227EB5C1
:100553000212012253B602120122CEB60212012266
:1005630056B70212012291B702120122C8B7021232
:10057300012256B8021201222FB9021201228FB9A9
:10058300021201229AB90212012219BA021201229D
:100593001CBA021201221FBA02120122AEBA0212BF
:1005A3000122B1BA02120122E1BA021201220BBBEB
:1005B30002120122F9BB02120122ABBC0212012278
:1005C300C7E602120122EFE6021201221DE7021220
:1005D300012254E702120122B2E702120122FDE7CF
:1005E3000212012248E80212012288E802120122C3
:1005F300CEE802120122FCE802120122B9E902123A
:100603000122C3E902120122D0E90212012203EA04
:1006130002120122CFEA02120122DBEA02120122B4
:10062300F3EA02120122FDEA0212012212FF011271
:10063300012220FF0112012238FF0112012250FF83
:100643000112012274BA0112012220BB01120122FC
:100653009BBB01120122BCBC01120122F8BC011296
:100663000122A1BD0112012288BE01120122ECBFA9
:100673000112012243C001120122C4C0011201224E
:10068300B4C10112012201C20112012287C2011267
:100693000122B9C201120122CDC4011201220FC5E8
:1006A300011201222DC501120122B0C5011201223E
:1006B30084C6011201224CC70112012212D5021273
:1006C3000122E5D5021201228ED602120122E1D6C1
:1006D3000212012291D7021201221DD80212012215
:1006E30009D90212012238D9021201224BDA02126D
:1006F300012293DA0212012268DB02120122A4DB37
:1007030002120122C0DB021201226AA50312012296
:10071300A48303120122BA8303120122E08303128A
:100723000122FC84031201220685031201223B8667
:1007330003120122338703120122A0E102120122D4
:10074300D0E20212012203E3021201224DE302125C
:10075300012214E502120122166C00120122806CA0
:1007630000120122DF6D00120122EF6D001201223F
:100773001C6E00120122736E001201221C6F001204
:100783000122237000120122ED70001201224D722A
:10079300001201229072001201223573001201220D
:1007A300827300120122A87300120122B67500128F
:1007B3000122BB7500120122C077001201220D78BD
:1007C30000120122807800120122B3780012012264
:1007D300557900120122FE7900120122367A0012A5
:1007E3000122397A00120122817A00120122C17A90
:1007F30000120122187B001201226E8D03120122C6
:10080300868D03120122CE8D03120122E48D031281
:1008130001222B8E031201223F8F03120122CC8F60
:1008230003120122179003120122902600120122C3
:100833009C2600120122D726001201221C27001237
:100843000122DC27001201226228001201228E28D5
:1008530000120122C72800120122052B00120122D7
:10086300E92C00120122CF2E0012012212300012B5
:100873000122603200120122723300120122BD34C0
:1008830000120122CD3500120122EA3500120122A5
:10089300253600120122473600120122AA36001221
:1008A30001226B3B00120122003C00120122513C49
:1008B30000120122783C00120122CA3C00120122DC
:1008C300E83C00120122423D00120122413E001287
:1008D3000122C53E0012012284EB021201228EEB9B
:1008E30002120122D1EB02120122ECEB02120122CD
:1008F3007CEC02120122A4EC02120122E1EC0212AE
:10090300012218ED0212012241ED02120122B6ED7D
:1009130002120122CBED02120122E0ED02120122AA
:1009230011EE0212012225EE021201224AEE0212F8
:10093300012284EE02120122B0EE0212012233EFF1
:10094300021201227CEF02120122A6EF02120122FF
:10095300D1EF02120122C59E03120122E99A02126B
:100963000122179B02120122659C02120122459D5E
:1009730002120122649D02120122E19D0212012250
:10098300249E021201227A9F021201223BA002122C
:100993000122C2A20212012263A30212012259A45C
:1009A3000212012256A502120122B0A6021201224E
:1009B3003BA7021201226A9D03120122D39D031257
:1009C3000122279E031201224E9E031201227F9EC3
:1009D30003120122F9EF0212012266F00212012230
:1009E300ADF002120122C5F102120122C1F202127C
:1009F3000122A4F3021201221CBD021201225EBDD8
:100A03000212012230BE0212012209BF0212012288
:100A130003C002120122E5C0021201224EC10212DA
:100A2300012204C20212012278C202120122E4C28C
:100A3300021201220DC30212012287C302120122F4
:100A430020C40212012285C4021201229AC4021296
:100A53000122E0C402120122F9C4021201225EC57E
:100A63000212012261C502120122C7FC02120122F5
:100A7300EFFC021201222DFD02120122EBFD0212F4
:100A8300012252FE021201226EFE0212012296FE82
:100A930002120122C6FE02120122D5FE0212012217
:100AA30052FF0212012278FF021201223CAB011213
:100AB30001221AAD011201224CAF0112012288AFAB
:100AC30001120122B5AF011201229FB001120122CE
:100AD300EAB00112012235B10112012247B101121C
:100AE300012287B101120122BCB1011201220AB213
:100AF3000112012239B2011201225CB20112012258
:100B0300A9B2011201222EB30112012248B501122A
:100B1300012287B701120122C8B7011201226AB963
:100B230001120122ABB9011201221EBA01120122E4
:100B3300D48D02120122D28E021201226B9502126F
:100B430001228C9702120122579902120122BF9AA5
:100B5300021201222C3F00120122DB3F001201226C
:100B6300214000120122614100120122F7420012CA
:100B730001227143001201228C4300120122074417
:100B830000120122614500120122C1460012012216
:100B9300C7470012012228490012012241490012CD
:100BA30001229F49001201228D4A00120122C04AEC
:100BB30000120122304B00120122AA4B0012012223
:100BC300F44B00120122BE4C00120122934D00127D
:100BD3000122724E00120122FD4E001201226B4FC0
:100BE30000120122DF4F001201220A5000120122DB
:100BF300C950001201222E52001201224B52001240
:100C030001226A52001201225B5300120122805317
:100C130000120122AA5300120122255400120122BC
:100C23007F5400120122E855001201229656001249
:100C33000122D756001201220080021201224E80A7
:100C4300021201225A800212012238810212012269
:100C53006981021201229A81021201221A8202126E
:100C63000122528202120122A48202120122E18293
:100C730002120122FE84021201222487021201229F
:100C83000F8902120122F98A02120122852600121B
:100C93000122299701120122599701120122329E42
:100CA30001120122B79F01120122B4A501120122F0
:100CB3009CA601120122D9A601120122FCA601124F
:100CC30001222DA70112012236A70112012240A7FA
:100CD300011201222EA80112012224A901120122CC
:100CE300075700120122065B001201220C5B00125F
:100CF30001224762001201226067001201223D8730
:100D030003120122378803120122AB880312012246
:100D1300E988031201225D8903120122D689031295
:100D23000122DF8903120122EB8903120122008AC7
:100D3300031201223E8A03120122548A0312012262
:100D430066F40212012273F4021201228DF40212DC
:100D53000122CCF4021201220AF5021201226FF5DC
:100D63000212012284F5021201228FF502120122DE
:100D73009CF502120122B3F502120122C1F50212FF
:100D83000122CCF502120122D8F502120122E7F565
:100D930002120122F2F50212012215F602120122B9
:100DA300BCF602120122CCF602120122E6F602126E
:100DB300012203F7021201221FF70212012244F754
:100DC300021201224FF70212012264F702120122DA
:100DD30078F702120122D9F702120122DFF7021279
:100DE3000122E5F702120122EBF70212012203F8B6
:100DF3000212012236F802120122D6D70112012271
:100E03005AD80112012209D90112012268DA01120A
:100E1300012289DC0112012275DD01120122AADD02
:100E230001120122CCDD011201227BDE011201221B
:100E330073E0011201229CE0011201222EE1011252
:100E4300012260E1011201226DE101120122C4E1DC
:100E530001120122EAE10112012257E401120122E7
:100E63005AE501120122B2E50112012265C90112FC
:100E730001226FCA0112012256CB0112012260CB5B
:100E83000112012282CB011201228ECB0112012217
:100E930027CD0112012256CD0112012272CE011279
:100EA3000122CBCE0112012231D00112012210D135
:100EB300011201226CD101120122D9D101120122A6
:100EC30014D20112012253D2011201220CD50112B4
:100ED300012226D501120122B2D501120122C0D569
:100EE3000112012219D60112012227D60112012271
:100EF3009AD601120122FED60112012248D701120D
:100F03000122E4F30112012206F4011201222CF65C
:100F13000112012241F90112012259FA011201229F
:100F23000CFB01120122EEFB011201229F98031216
:100F33000122C4980312012236990312012298CD8B
:100F430002120122A1CD02120122AACD0212012214
:100F530081CE0212012232D00212012268D0021283
:100F63000122A2D002120122D8D00212012212D1F0
:100F73000212012246D10212012272D1021201226F
:100F8300BBD102120122F5D1021201223ED202127A
:100F9300012296D202120122CBD20212012226D3BF
:100FA3000212012260D302120122B1D302120122E2
:100FB300E7D30212012221D4021201224FD40212DA
:100FC300012272D402120122AEA303120122DAA378
:100FD3000312012235A4031201223FA403120122AA
:100FE3004FA403120122848A03120122A98A031245
:100FF30001225BA703120122458201120122A2846E
:101003000112012279850112012235870112012281
:10101300228801120122A9880112012229890112C1
:1010230001224E8901120122B18901120122BD8CD4
:1010330001120122398D01120122288E011201228F
:10104300608E01120122A38E011201224F90011220
:101053000122A49001120122F19001120122639155
:10106300011201228A9101120122A491011201228B
:10107300B99201120122C99201120122F0930112C5
:10108300012212940112012248940112012299951E
:1010930001120122D89501120122049701120122A3
:1010A300F2A20312012203A303120122A3A3031238
:1010B300012212A70312012251A703120122E9FF01
:1010C3000112012259A40312012269A4031201226D
:1010D3007BA403120122E1A403120122F5A003124F
:1010E300012279A103120122DFA103120122DE9F53
:1010F300031201220EA00312012261A00312012296
:10110300BAA003120122DEFF02120122BCA70212BF
:1011130001221CA8021201221EA90212012240A9C7
:101123000212012253A902120122E8A9021201228A
:10113300BFAB02120122D3AD02120122E0AE0212B2
:10114300012245AF02120122A0AF0212012201B017
:101153000212012242B00212012245B00212012200
:1011630094B002120122A0B1021201223EB2021275
:1011730001228AB202120122AFB2021201220080BE
:1011830003120122958103120122D8810312012245
:10119300FB8103120122138203120122F482031240
:1011A3000122FC82031201221B83031201224D83BD
:1011B30003120122AC9203120122079403120122AB
:1011C300779403120122E4A403120122E7A4031279
:1011D300012210A50312012228A50312012235DCE6
:1011E300021201223FDC021201227FDC02120122E1
:1011F300C8DC0212012202DD021201225CDD0212AE
:1012030001227BDD0212012284DD02120122D5DDDF
:1012130002120122FEDD0212012208DE0212012265
:1012230074DE0212012202DF021201225BDF0212CC
:10123300012289DF0212012209E0021201224CE09D
:101243000212012287E002120122A6E00212012209
:10125300AFE00212012274E102120122E39B0312A6
:101263000122389C03120122A69C03120122169D1F
:10127300031201224190031201226B9003120122F7
:10128300409103120122349203120122F8A10312A6
:10129300012258A603120122E39403120122199595
:1012A30003120122529503120122AB96031201226B
:1012B300EEA50312012204A6031201220EA60312B5
:1012C300012285C50212012242C6021201227DC6F5
:1012D30002120122A5C60212012207C7021201222D
:1012E30053C702120122B7C70212012231C80212E8
:1012F300012233C902120122E6CA0212012268CB7B
:1013030002120122CDCB02120122E4CB02120122EE
:10131300EDCC021201222BCD02120122B3F80212EC
:101323000122CCF80212012270F902120122B0F953
:1013330002120122C9F902120122FCF9021201224E
:1013430049FA021201227DFA02120122BFFA0212A5
:10135300012200E60112012289E90112012211EBA7
:101363000112012268EB0112012287EB0112012213
:1013730005EC01120122A3ED0112012287EE0112F5
:10138300012271F20112012241F301120122449A56
:1013930003120122749A031201228C9A031201226E
:1013A300DB9A03120122E09A03120122AC9B03127F
:1013B3000122D17F00120122C0FF02E066701008F3
:1013C300A3E066700A08A3E066700408A3E066223F
:1013D300C3E7960809E7960809E7960809E79622FE
:1013E300C3E09608A3E09608A3E09608A3E096223C
:1013F300C008C3E096F50808A3E096420808A3E0F6
:1014030096420808A3E09645087001D3D008220845
:101413000808EAC0E0EBC0E086F0E7A4FA18098602
:10142300F0E7A42AFA180986F0E7A42AFA1809862D
:10143300F0E7A42AFA1986F0E7A4FBE5F02AFA19E3
:101443000886F0E7A42BFBE5F03AFA190886F0E7E3
:10145300A42BFBE5F03AFA18180986F0E7A4C5F0C7
:101463002BFBE43AFA1908E7C5F0C6A426F6E5F023
:101473003BFBE43AFA1886F0E7A4F6E5F00826F613
:10148300E43B08F6E43A08F6D0E0FBD0E0FA22E4C5
:10149300CFC0E0E4CEC0E0E4CDC0E0E4CCC0E07572
:1014A300F020E626F608E633F608E633F608E633D8
:1014B300F6181818EC33FCED33FDEE33FEEF33FF73
:1014C300C3EC9709ED9709EE9709EF97191919409E
:1014D3000FFFEC97FC09ED97FD09EE97FE1919062E
:1014E300D5F0BFECF709EDF709EEF709EFF7191996
:1014F30019D0E0FCD0E0FDD0E0FED0E0FF22601682
:10150300080808C6C313C618C613C618C613C618D8
:10151300C613C6D5E0EA2270090808082260161827
:101523001818C6C333C608C633C608C633C608C6AA
:1015330033C6D5E0EA22E627F60809E637F60809B6
:10154300E637F60809E637F622E026F608A3E03682
:10155300F608A3E036F608A3E036F622E026F00804
:10156300A3E036F008A3E036F008A3E036F022C388
:10157300E697F60809E697F60809E697F60809E6F6
:1015830097F622C3E096F008A3E096F008A3E0964E
:10159300F008A3E096F022E657F60809E657F608A6
:1015A30009E657F60809E657F622E056F608A3E0DF
:1015B30056F608A3E056F608A3E056F622E056F0E6
:1015C30008A3E056F008A3E056F008A3E056F02283
:1015D300E0F608A3E0F608A3E0F608A3E0F622E6A7
:1015E300F008A3E6F008A3E6F008A3E6F022E0FA89
:1015F300A3E0FBA3E0FCA3E0FD22EAF0A3EBF0A34E
:10160300ECF0A3EDF022E0F8A3E0F9A3E0FAA3E005
:10161300FB22E8F0A3E9F0A3EAF0A3EBF022CAC0AF
:10162300E0E6F0A308DAFAD0E0FA22CAC0E0E0A3C9
:10163300C582CCC582C583CDC583F0A3C582CCC585
:1016430082C583CDC583DAE6D0E0CA22C3E498F825
:10165300E499F91216908026C3E49AFAE49BFBE915
:1016630020E7E9121690E498F8E499F922C3E49884
:10167300F8E499F9121690E498F8E499F9C3E49A16
:10168300FAE49BFB22EB20E7CFE920E7E0B9001067
:10169300BB0008E88AF084F8AAF022E4FBC8FA2227
:1016A300EB70227B10C833C8C933C9335007C39AC0
:1016B300C3DBF280069A50012ADBEAC833F4C8C9B7
:1016C30033F4C9FA2275F008E4C833C8C933C933FF
:1016D300C99AC99B5004C92AC93BD5F0ECFBC8334E
:1016E300F4C8E4C9FA22600D08C6A2E713C618C6F7
:1016F30013C6D5E0F322600C08C6C313C618C6137D
:10170300C6D5E0F422700422600D18C6C333C608A0
:10171300C633C6D5E0F41822251810AF08F51840D3
:101723000C15198008F51840021519D2AF2200C014
:10173300D0251810AF08F518500C05198008F518B6
:1017430050020519D2AFD0D0222518F58210AF0868
:10175300F518400C15198008F51840021519D2AF79
:10176300851983222518F582E43519F58322251876
:10177300F8E43519F9222518FAE43519FB2225185E
:10178300FCE43519FD22E4732518C582C0E0E51990
:1017930034FFC583C0E0E518C3958224F810AF0871
:1017A3008583198582188008858319858218D2AFAD
:1017B300CEF0A3E520F0A37808E608F0A3DEFAEF65
:1017C300F0A3E58124FAF8E608F0A3E608F0A3E61F
:1017D30008F0A30808E608F0A3E608F0A3158115AE
:1017E30081D0E0FED0E0F8158115811581E8C0E0D5
:1017F300EEC0E0222518C582C0E0E51934FFC58399
:10180300C0E0E518C3958224F910AF0885831985D4
:1018130082188008858319858218D2AFCEF0A3E59C
:1018230020F0A37808E608F0A3DEFAEFF0A3E58141
:1018330024FBF8E608F0A3E608F0A30808E608F09E
:10184300A3E608F0A315811581D0E0FED0E0F815DA
:10185300811581E8C0E0EEC0E022851983851882F6
:10186300E0A3FEE0A3F5207808E0A3F608DFFAE0A2
:10187300A3FFE0A3C0E0E0A3C0E0E0A3C0E0E0A3D7
:10188300C0E0E0A3C0E010AF08858218858319800B
:1018930008858218858319D2AFD083D08202011FB5
:1018A300851983851882E0A3FEE0A3F5207808E07C
:1018B300A3F608DFFAE0A3FFE0A3C0E0E0A3C0E0E3
:1018C300E0A3C0E0E0A3C0E010AF088582188583E1
:1018D300198008858218858319D2AFD083D08222DC
:1018E300C0D02518C582C0E0E51934FFC583C0E028
:1018F300E518C3958224F310AF08858319858218F0
:101903008008858319858218D2AFC8F0A3E9F0A3B4
:10191300EAF0A3EBF0A37908E709F0A3D8FAECF017
:10192300A3EDF0A3EEF0A3EFF0A3D0E0F0A3D0E09B
:10193300F0A3D0E0F0A3E520F0A3E5F0F0A3228527
:101943001983851882E0C0E0A3E0F9A3E0FAA3E0DD
:10195300FBA37808E0F608A3DFFAE0FCA3E0FDA30D
:10196300E0FEA3E0FFA3E0C0E0A3E0C0E0A3E0F556
:10197300D0A3E0F520A3E0A3F5F010AF0885831909
:101983008582188008858319858218D2AFD082D0CA
:1019930083D0E0F8D0E032740480067402800274CD
:1019A30001C0E0F40412174CD0E012162122740493
:1019B300800474028000CCC0E0EDC0E0E518C39C55
:1019C300CCAD1950011D10AF068C188D1980068CF3
:1019D300188D19D2AF12162ED0E0FDD0E0FC22D024
:1019E30083D082E9C0E0E493A3C386F0C5F095F009
:1019F300F908E493A386F0C5F095F0700BE493A384
:101A0300C3994005E9048002A3E475F002A425828A
:101A1300F582E5F03583F583D0E0F9E493A3C0E0E4
:101A2300E493C0E022D083D082ECC0E0EDC0E0E4D8
:101A330093A3FCE493A3FDED4C600D121A74EC2404
:101A4300FFFCED34FFFD80EFE493A3FCE493A3FDDF
:101A5300ED4C600D121AB3EC24FFFCED34FFFD8056
:101A6300EFD0E0FDD0E0FCE493A3C0E0E493C0E05A
:101A730022C0E0C3E49396087401939618400FE4E0
:101A83009366700808740193661870007019A3A315
:101A9300C3E49396087401939618A3A3400DD0E072
:101AA300D0E0D0E0021A64A3A3A3A3A3A3D0E022AF
:101AB300C0E0C0F088F0E493667008087401936690
:101AC300187000A8F0A3A3700BD0F0D0E0D0E0D042
:0B1AD300E0021A64A3A3D0F0D0E022D0
:101AE00074F51217F7EAFEEBFFEE2434F8EF34003A
:101AF000F988088909EE2435F582EF3400F583E092
:101B0000F8EE2437F582EF3400F583E0F50AEC8532
:101B10000AF0A4FCAAF0850AF0EDA42AFDE82CF84E
:101B2000E43DF97A257B00121690EA850882850942
:101B300083F0F8740758F97401B900028004C333C4
:101B4000D9FCFAE8131313541FF8EE28F8EF340009
:101B5000F9E8245DF582E93400F583E05A6008EE87
:101B60002434F582EF802CEE2434F582EF3400F536
:101B700083E0C0E0EE2436F582EF3400F583E0F533
:101B8000F0D0E084A8F0EE28F8EF3400F9E824382B
:101B9000F582E93400F583E0F97F040218A374F5B7
:101BA0001217F7EAFEEBFFEE2434F582EF3400F56E
:101BB00083E0C0E0EE2435F582EF3400F583D0E019
:101BC000F08E828F83A3A3A3A3A3A3A3C082C08309
:101BD0008E828F83A3A3A3A3A3E0F8A3E0F9D0830D
:101BE000D082E0C398F508A3E099F509EE247FF5CB
:101BF00082EF3400F583E064017069EE2480F582A1
:101C0000EF3400F583E0F8A3E0F98E828F83A3A37D
:101C1000A3A3A3A3A3E0FCA3E0FD8E828F83A3A3D1
:101C2000A3A3A3E0FAA3E0FBC3EA9CEB9D5010C37F
:101C3000EC98ED99402EC3EA98EB995027800EC39B
:101C4000EA98EB994007C3EC98ED9940177CEB7D3F
:101C500004EEFAEFFB120BEAEE247FF582EF34007C
:101C6000F583E4F0EE2434F8EF3400F9E8FCE9FD04
:101C7000EE2435F582EF3400F583E0F8EE2437F5F5
:101C800082EF3400F583E0F50AE508850AF0A4F553
:101C900008AAF0850AF0E509A42AF509E82508F85C
:101CA000E43509F97A257B00121690EA8C828D833F
:101CB000F0F8740758F97401B900028004C333D9ED
:101CC000FCFAE8131313541FF8EE28F8EF3400F968
:101CD000E8245DF582E93400F583E05A6008EE24DB
:101CE00034F582EF802CEE2434F582EF3400F58356
:101CF000E0C0E0EE2436F582EF3400F583E0F5F045
:101D0000D0E084A8F0EE28F8EF3400F9E82438F5A4
:101D100082E93400F583E0F91225F5021B99C082AF
:101D2000C083851882851983E0F8A3E0F9C3EA9C93
:101D3000EB9D5010C3EC98ED99401BC3EA98EB99CA
:101D40005014800EC3EA98EB994007C3EC98ED99C4
:101D50004004790180027900D083D08222EAC39CBA
:101D6000FAEB9DFB2274EF1217F79003B1E06408C1
:101D70006005E06407702A9061C8E060249003DF8A
:101D8000E0F4601DE0F875F003A4C8AAF02AF97425
:101D9000E128FE740339FF8E828F83A3A3A3E07032
:101DA00003021E95906060E0C0E0EE2468F582EFCB
:101DB0003400F583D0E0F0750C54750D05750800FE
:101DC000750900E5D914F50AE5D95403F50E601735
:101DD0007403650E605CE50A6010EE2467F582EF1F
:101DE0003400F583E07003021E7A90054FE0640131
:101DF000602AEE2482F582EF3400F583E0600478F7
:101E00000480027800850A08E508C398FA95E0FB8B
:101E1000120ABE8A088B09EA45097005120DDC809A
:101E200074EE2482F582EF3400F583E070048A0CAE
:101E30008B0DE50A6012850C82850D83F50BE5D9C3
:101E4000F0A3150BE50B70F6EE2482F582EF34005B
:101E5000F583E0604474FC250AF50A780C12199E9B
:101E6000AC0AA90EEEFAEFFB120C867402121731BF
:101E7000E97026AA08AB09121262793D8E828F831F
:101E8000A3A3A3A3E0FA7B00120992EEFAEFFB12E0
:101E90000C02120C98790080747403650E605685EC
:101EA0000A10751100781012199EAC0CAD0DAA081D
:101EB000AB09120C627402121731EE2468F582EF3E
:101EC0003400F583E064807004747F8001E0F50CD9
:101ED000780C1219A2E50EF50C780C1219A2A90AB9
:101EE000AC08AD099003DFE0FA7B001209567402DA
:101EF00012173180139003B1E06408600BAC0CAD95
:101F00000DEEFAEFFB120CF2120DE879017F0A02D6
:101F100018A374F51217F774FC12171BEAFEEBFFF7
:101F20008908A2AFE433F509C2AF806AEE2463F8F2
:101F3000EF3400F97A007B00A2AFE433F50AC2AFB8
:101F400088828983E0FCA3E0FDEC4D603A888289B9
:101F500083E0FAA3E0FB8A828B83E0FCA3E0FD88A8
:101F6000828983ECF0A3EDF08A828B83E4F0A3F006
:101F700088828983E0FCA3E0FDEC4D700A888289A9
:101F800083A3A3E4F0A3F0E50AA2E092AF121262E9
:101F90009004F2E004F0EE2463F582EF3400F58360
:101FA000E0F8A3E0F9E849603DEE2463F582EF3400
:101FB00000F583E02402FAA3E03400FBEA2402F5F2
:101FC0000AEB3400F50B780A12199E8A828B83E0A3
:101FD000FCA3E0F9EEFAEFFB120C267402121731A3
:101FE000E97003021F2C9004F2E060639004F3E0B8
:101FF000F89004F2E0C398500C7402650870509099
:1020000004F4E0604A8E828F83A3A3A3A3E0851823
:1020100082851983F0A3E4F09004F2E0F8740212D0
:102020001767E8F0A3E4F09004F2E0F89004F1E020
:1020300028F07402121767AC82AD83851882851967
:1020400083AA82AB8379011209629004F2E4F0E57D
:1020500009A2E092AF7404121731021B990000002C
:102060008521878522C622C0E0C0D0E8C0E0E9C053
:10207000E0EAC0E0EBC0E0ECC0E0EDC0E0EEC0E0C4
:10208000C008C009C00AC00BC082C083C0F0A2AFA4
:10209000E433FEC2AF759B00906182E0A2E0501273
:1020A000E591A2E0500C7591FE7401652170031258
:1020B0001D65E0A2E55051E591A2E5504B7591DF19
:1020C0009003B1E064076005E06408702374016563
:1020D00021703579019003DFE0FA75F003A4CAA8F6
:1020E000F028FB74E12AFA74033BFB121F128018DC
:1020F000E0640D70139003D3E004F064287002E4F0
:10210000F07A00E0F9120DEE906182E0A2E6400361
:102110000221AEE591A2E640030221AE7591BF9087
:1021200003B1E064057008120D1C120D2880031223
:102130000D22752100120D7CE99003B2F079001296
:102140000D70120B607A017B009003B0E0F912125F
:1021500038907803E064427055900553E014F070B5
:102160004DC2AF12216600782AD0E0F618D0E0F612
:10217000E59F540770057509FF800375097FC4C08A
:10218000E07829E6F50808E65509F509740B7808A2
:102190001216F9D0E02508F8906270E0A2E740F846
:1021A000E8C333906272F0906270E0D2E0F0906128
:1021B00081E0A2E35009E5E9A2E3500375E9F7A342
:1021C000E0A2E75009E591A2E7500375917FEEA2E6
:1021D000E092AFD0F0D083D082D00BD00AD009D01B
:1021E00008D0E0FED0E0FDD0E0FCD0E0FBD0E0FA8B
:1021F000D0E0F9D0E0F8D0D0D0E032C0E0C0D0C01C
:1022000082C083906183E0A2E05009E5BFA2E05064
:102210000375BFFEE0A2E15009E5BFA2E1500375DE
:10222000BFFDE0A2E25009E5BFA2E2500375BFFB8B
:10223000E0A2E35009E5BFA2E3500375BFF7E0A2B7
:10224000E45009E5BFA2E4500375BFEFE0A2E550FA
:1022500009E5BFA2E5500375BFDFE0A2E65009E53E
:10226000BFA2E6500375BFBFD083D0828088C0E094
:10227000C0D0E8C0E0E9C0E0EAC0E0EBC0E0ECC0FC
:10228000E0EDC0E0C0F0E5A7A2E6500FE5A1A2E6B0
:10229000500953A7BF75A1BF1222D3E5A7A2E550ED
:1022A0000CE5A1A2E5500653A7DF75A1DFE5A7A2C3
:1022B000E15009E5A1A2E1500375A1FDE5A7A2E265
:1022C000500CE5A1A2E2500653A7FB75A1FBD0F08C
:1022D0000221E474F81217F77521019003B1E0644C
:1022E000067015120CB68A828B83A3A3A3A3A3A3A3
:1022F000E0FAA3E0FB120D0AA2AFE433FED2AF90E6
:1023000003B7E0640170187A207B009003B0E0F915
:102310001213407A207B009003B0E0F912123E9035
:102320006182E0D2E6F0900550E0602185C622800F
:10233000169003B6E064017008E5C654F84405F54C
:10234000C653BEFC1220607401652160E4EEA2E079
:1023500092AF7F010218A3008E238F2485822885E7
:102360008327851882851983E0CEA3E0CF85288254
:10237000852783EBC9EAC8EDCBECCA75F010C3E83A
:1023800033C8E933C9EA33CAEB33CBC3EA9EF52637
:10239000EB9FF525B35004AB25AA26EC33CCED33E7
:1023A000CDD5F0DAAE23AF242274ED1217F78A08E8
:1023B0008B098C0A8D0B7413121767780C1215D3C6
:1023C0007808790C1213D37510017511C8751200B5
:1023D00075130050127808790C121572781079086C
:1023E0001213D350168010780C79081215727810D9
:1023F000790C1213D340047901800279007F0C021A
:1024000018A374ED1217F78A088B098C0A8D0B74C8
:1024100013121767780C1215D3780C79081213D39E
:1024200040117808790C121572AA08AB09AC0AADF4
:102430000B8022751000751100751200751301785C
:1024400010790C12157278107908121539AA10AB90
:1024500011AC12AD1380A68A828B837508FF7509B3
:10246000FF750AFF750B0078081215C07F0402186B
:10247000A374F51217F78C828D8378081215D38A0E
:10248000828B837808121586EA2404F8EB3400F96D
:102490008C828D83A3A3A3A3E0FCA3E0FD888289A3
:1024A00083C3E09CF0A3E09DF088828983C3E0941D
:1024B00020A3E0944E40268A828B837508FF75091D
:1024C000FF750AFF750BFF780812155F8A828B83F0
:1024D000A3A3A3A3E02420F0A3E0344EF0022457EA
:1024E00074F51217F7E9FE900506E0FAA3E0FBEE9B
:1024F000C333F8E433F9741F28F582748139F58306
:10250000E02AF508A3E03BF509780812199E7A4005
:102510007B427C0F7D0012235874021217318A0807
:102520008B098C0A8D0B74107808121501AA08AB60
:10253000097F040218A374F11217F78A0C8B0D8C13
:102540000E8D0F740F121767E0FAA3E0FB741112DF
:102550001767E0F508A3E0F509780812199EEA2448
:1025600001F508EB3400F509E4F50AF50B780C7970
:1025700008121412750871750902780C7908121482
:1025800012AA0CAB0DAC0EAD0F1223587402121729
:10259000318B09EA450960047A0180027A00EC2A4D
:1025A000FCED3400FD7413121767E0F8A3E0F9E8BE
:1025B000FEE9FFECF8EDF97A717B021216908808BB
:1025C00089098E828F8378081215E2ECF8EDF97A8A
:1025D000717B021216908A088B097405780812170D
:1025E000088E828F83A3A3A3A3E508F0A3E509F0D7
:1025F0007F080218A3C082C083E9906000F0D083F6
:10260000D08222C0E074F21218E3A2AFE433FED20B
:10261000AFE58BA2E05003121100758B00C2E8EE0B
:10262000A2E092AF7F01021942C0E0C0D0E8C0E052
:10263000E9C0E0A9A8D2AFC2C7E9A2E7E433F8E94C
:10264000A2E792AFD0E0F9D0E0F8D0D0D0E032C02D
:10265000E074F21218E3758900C2C56380027A0043
:1026600079001211D87F01021942C0E074F21218E9
:10267000E3638002C28BE5C19008EBF0FA80E1C20F
:10268000AF0200002202011FFFFFFFFFFFFFFFFF5D
:10269000C082C083E9900B00F00228BA74F71217C9
:1026A0008BE99002F0F07C287D037AFF7BFF120813
:1026B000B49002F174FFF0A3F0A3E4F0A3F0790565
:1026C0001208429002F0E0F91207647ACC7B0812FB
:1026D0000A707F0102185D74F412178B8A088B0947
:1026E000EB548060309002F0E0F91212208A0A8BDD
:1026F0000BAE0AAF0BEE4F60138E828F83E064B097
:102700007003120854EEFAEFFB12120EAA08E50944
:102710006480FB80047A007B0002288974F212171F
:102720008B74FC12171BEAFEEBFFEE4F603874024D
:10273000121767EEF0A3EF122AEEECF0A3ED122AC7
:10274000EEAA82AB8312075EE9F508707374121269
:1027500017671236A2E50A450B60658E828F8312D9
:1027600027CAEE4F700575080280557A067B001265
:1027700012A48A0C8B0DA80CA90DE84970057508E8
:1027800013803D88828983E41227D4A3A3EEF0A3AB
:10279000EF123B3BE50AF0A3E50BF09002F612289E
:1027A0005C9002F66017E0FCA3E08003EAFCEBFD1E
:1027B0008C828D8312285C70F38C828D831235C7D6
:1027C000A9087404121731023D3DA3A3A3A3E0FEA0
:1027D000A3E0FF22F0A3F0888289832274F212170B
:1027E0008B890AE975F017A4FEAFF09002F5E4F0CA
:1027F0009002F312285C600A1212AA9002F3E4F02D
:10280000A3F0EEFAEFFB1212A48A088B09EA45093D
:10281000602FEEFCEFFD79001211FC9002F3E50849
:10282000F0A3E509F07B008008122846E4F0A3F04D
:102830000BEBC3950A40F2E50A9002F5F0790080AF
:10284000027913023D3DEB75F017A4F8A9F0900250
:10285000F3E028FAA3E0398A82F5832212335DEA95
:102860004B2274F412178B7900EAA2E0501B750812
:102870009E750981780812199E7C047D007A027B7E
:102880000B12083C74021217317F0402185DC082DB
:10289000C0839002F61228C1601C88828983A3A39A
:1028A000E06A7003A3E06B8882898370E8A3A3A326
:1028B000A312335980047A007B00D083D0820201B6
:1028C0001F123E10E8492274EE12178B74FC121787
:1028D0001BEAFEEBFF851882851983E4F0A3F0EE76
:1028E00024021235ABEE2405122ADCEE2404F50E88
:1028F000EF122EC1E024FE603924FC604624FE6005
:102900005224FE605E24FE70030229E124FE70035F
:10291000022A5924FE7003022A6824FE7003022A48
:102920007724FC7003022A8624FE7003022A950293
:102930002AD290030F7417F0A3E4122AF61204DCD3
:10294000022AD2851882851983AC82AD8312085A77
:10295000022AA2851882851983AC82AD8312086091
:10296000022AA2850C08850D097402121767AC8231
:10297000AD838508828509831233591207828A0C38
:102980008B0DAC0CAD0DEC4D6042E4F50CF50D7803
:102990000C12199E750C0F750D03780C12199E758B
:1029A0000C10750D03780C12199E7408121767121B
:1029B00019B5791612335312089C7408121731E9AD
:1029C000F50C700B12334F1204F4800F750C018557
:1029D0000882850983122AE41235C7850C08022A69
:1029E000A57402121767AC82AD83850C82850D83B6
:1029F0001233591207828A108B11AC10AD11EC4DB5
:102A00006043850C82850D83A3A31219B575100F41
:102A1000751103781012199E751010751103781036
:102A200012199E74081217671219B57916123353CA
:102A300012089C7408121731E9F509700B12334F14
:102A40001204FA800F750901850C82850D83122A04
:102A5000E41235C7850908804C851882851983AC36
:102A600082AD83120866803A851882851983AC820C
:102A7000AD8312086C802B851882851983AC82ADDA
:102A800083120872801C851882851983AC82AD83FD
:102A9000120878800D851882851983AC82AD831267
:102AA000087EE9F508E50860298E828F83A3E0643B
:102AB00014601F850E82850F83E090030F122AEEAB
:102AC000123E0C9003101235C7E508A3122AF61225
:102AD00004D6EEFAEFFB1208000234B3F50CEF3423
:102AE00000F50D22123E1085188285198322F0858B
:102AF000188285198322F07C0F7D03850A82850B5D
:102B00008312335D2274EE12178B74FC12171B8A2A
:102B10000A8B0B8C0E8D0FEA2405F508EB3400F5BB
:102B2000097C157D0079007A0F7B031211FCE50802
:102B30002402F50CE509122ADF85188285198385A0
:102B40008210858311781012199E85088285098369
:102B5000A3A3A3A312300912199EE5082405F510BA
:102B6000E5093400F511781012199E850C82850D47
:102B70008312336312077C74061217318A108B118B
:102B8000AE10AF11E50A2402F50AE50B1235AEEEE0
:102B90004F7003022CCB801774021217671233593F
:102BA00088828983EAF0A3EBF090030FE004F090B1
:102BB000030FE0C394054003022CCBE4F510F5119C
:102BC000781012199E7510F8751102781012199E5E
:102BD0007510F9751102781012199E740612176794
:102BE0001219B57910EEFCEFFD12335312089C74E4
:102BF00008121731E9705E850882850983A3A3A3B3
:102C0000A3A3A3A3E0F89002F8E06870481230098B
:102C100012199E7CF97D02E5082408FAE5093400C2
:102C2000FB1211F67402121731E960298E828F832C
:102C3000A3A3A3A312335990030FE0F510740278F5
:102C40001012170874102510F58274033511F583DE
:102C5000EAF0A3EBF07402121767858210858311E6
:102C6000781012199E74021217671219B5850C821A
:102C7000850D83123E2112078874041217318A10C1
:102C80008B11AE10AF1190030FE0F51075110074A9
:102C9000027810121708740F2510F874033511F913
:102CA00088828983A312285C7003022B8FE8240397
:102CB000F8E93400F9EE4F6003022B98888289838B
:102CC00074FFF0A3F090030FE004F090030FE060B6
:102CD0000A12334F1204E87900800B8508828509B7
:102CE000831235BE790A0234B374EA12178B74FE6C
:102CF00012171B8C128D13EA2405F50CEB123E2BD8
:102D00001227CE750800750900EA2402F510EB348D
:102D100000F51185188285198385820A85830B78D1
:102D20000A12199E850C82850D83A3A3A3A3122EDC
:102D3000CB12199EE50C2405F50AE50D1235AE7887
:102D40000A12199E850C82850D83123E1F12077C84
:102D500074061217318A0A8B0BEA450B7003022E98
:102D60007CEA2404F50EEB122EC11227CE8A828B48
:102D700083A3A3A3E0F9851082851183123359122E
:102D8000076AE9F5096003022E7CE4F514F515786D
:102D90001412199E7514F8751502781412199E757F
:102DA00014F9751502781412199E74061217671219
:102DB00019B57913AC0AAD0B8510828511831233D6
:102DC0005912089C7408121731E9F5096003022EA4
:102DD0007C9002F8E0F8E5087009E0240290031006
:102DE000F08017900310E0FCE82402FAE43400FBC2
:102DF000EA6C7001EB6003022E80850882AA8212C1
:102E000030009414122FF85073850E82850F83E0E2
:102E1000C0E074112A122EB8D0E0F00508850E82A9
:102E2000850F83A3E0C0E085080A7411250A122EDD
:102E3000B8D0E0F005089002F8122ECB12199E7C53
:102E4000F97D0285080A7411250AFA74033400FB1F
:102E50001211E474021217319002F8E02508F50807
:102E600074FF6E700374FF6F6012EE24010EEF3476
:102E700000FFE508C394145003022D13E508601306
:102E80001232448510828511831233591204EE796F
:102E9000008014E509700375090A85128285138381
:102EA000EEF0A3EFF0A90974021217317F0E021899
:102EB0005D85080C7411250CF58274033400F583CC
:102EC000223400F50F850E82F58322123B4E2274C8
:102ED000EE12178B74FE12171B8C0E8D0FEA240551
:102EE000F50CEB122ADF750B0090030FE4F0F50AE6
:102EF000EA2402F508EB3400F509804990030FE05D
:102F0000FA9002F8E0F81230009417122FF8400DF2
:102F100090030FE0F87416C3989002F8F01230098D
:102F200012199E7CF97D0274102AFA74033400FB96
:102F30001211E474021217319002F8E0F890030FB6
:102F4000E028F0050AE50C2416F582E50D122EBCEA
:102F5000E0F8E50AC3984003022FE190030FE0C3B5
:102F60009416507DE50AC333F8E433F9E50C28FEE6
:102F7000E50D39FF851882851983AC82AD838E8279
:102F80008F831233591207828A108B11AC10AD1146
:102F9000EC4D7005750B018043E4F510F5117810C8
:102FA00012199E7510F8751102781012199E75107D
:102FB000F9751102781012199E740612176712190A
:102FC000B5791685088285098312335912089C74D5
:102FD00008121731E9F50B7003022EFC1235BA8086
:102FE000107C0F7D038508828509831233591205F1
:102FF00000A90B74020234B5E99400C365D03322F2
:10300000EA28F8E43400F9E822E0F51075110078B8
:10301000102274EA12178B74FC12171B8A0C8B0D8A
:103020008C128D13EA2405F50AEB1235AE750800F3
:10303000750900E50A2402F510E50B3400F511745A
:103040000212176785820E85830F780E12199E85EE
:103050000A82850B83A3A3A3A3123AFA12199EE551
:103060000A2405F50EE50B3400F50F780E12199EB3
:103070008510828511831235B412335312077C7484
:10308000061217318A0E8B0FAE0EAF0FE50C24021D
:10309000F50EE50D3400F50F80408882898374FFBA
:1030A000F00508122EB174FFF005089002F8E0F563
:1030B0000C750D00780C12199E7CF97D0285080CA8
:1030C0007411250CFA74033400FB1211E47402121B
:1030D00017319002F8E02508F508EE4F60718E82F6
:1030E0008F83A3A3A3E0F9850E82850F8312335942
:1030F00012076AE9F509EE2404122ADCE97044E4B7
:10310000F514F515781412199E7514F875150278D2
:103110001412199E7514F9751502781412199E74FB
:10312000081217671219B57911EEFCEFFD850E82B2
:10313000850F8312335912089C7408121731E9F570
:10314000096027850C82850D8312323A1235C7E556
:10315000087003023220123244850E82850F8312DA
:1031600033591205067900023235850882AA82EAAF
:103170009002F87009E02404900310F08022E0F837
:10318000900310E0F514E82404FCE43400FDEC6541
:10319000147001ED70C01230009412122FF850B666
:1031A000850C82850D83E0C0E074112A122EB8D000
:1031B000E0F00508850C82850D83A3E0C0E0122EA7
:1031C000B1D0E012325685820C85830D780C12192D
:1031D0009E74041217671219B58510828511831227
:1031E0003E2112078874041217318A0C8B0DAE0C25
:1031F000AF0D85080C7411250CF874033400F9EE3A
:103200004F700302309A851882851983E08882897D
:1032100083123256A3E0C0E0122EB1D0E00230A8F3
:10322000E509700375090A850A82850B8312323A13
:103230001235C7A9097404022EA9123E1085128204
:1032400085138322900310E0F5F0E5088490030FC6
:10325000F07C0F7D0322F0050885188285198322F2
:1032600074EC12178B74FE12171B8A088B098C0ED4
:103270008D0FEA2405FEEB3400FF85188285198343
:10328000AC82AD838E828F831233591207828A0AF1
:103290008B0BEE2418122ADCEA450B700302332A4A
:1032A00012349C50328518828519831233591208C2
:1032B000908A108B11EA4511606B7912AC0AAD0B44
:1032C00085088285098312335985108285118312FE
:1032D0001789E9F50A7058E4F50AF50B780A12190E
:1032E0009E8E828F83A3A3E0F50A780A12199EEEC0
:1032F00024031235AB780A12199E8E828F83123303
:10330000631208A27406121731E9F50A7021850CC0
:1033100082850D83E0701F850882850983123359E9
:1033200012050C8011750A0E8009750A018004E5EA
:103330000A60031235BA850C82850D83E06004793A
:10334000008002A90A74021217317F0C02185D7CFA
:103350000F7D03850A82850B8312335D22E0FAA379
:10336000E0FB22E0FCA3E0FD85088285098312339F
:103370005D2274EE12178B74FE12171B8A088B09DC
:103380008C0C8D0DEA2405FEEB3400FF750E0085D4
:103390001882851983AC82AD838E828F8312335954
:1033A0001207828A0A8B0BEA450B700302348812DB
:1033B000349C503585188285198312335912089030
:1033C0008A0E8B0FEA450F605E7912AC0AAD0B8551
:1033D0000882850983123359850E82850F8312175F
:1033E00089E9F50E600302348B8508828509831212
:1033F00036A2AA0AFB1208848A108B11A810A91100
:10340000E849701E7AFF7BFF1208848A108B11A88E
:1034100010A911E849606C88828983E50AF0A3E568
:103420000BF0750A008007750E0E805F050A90028A
:10343000F5E0FAE50AC39A504AE50A75F017A4FACE
:10344000ABF088828983A3A3E02AFAA3E03BFB8A3E
:10345000828B831235B4EC4D70D2750A17750B0050
:10346000780A12199EEEFCEFFD1211E47402121795
:1034700031EEFCEFFD850882850983123359120570
:10348000128014750E098003750E01123E08850C1A
:1034900082850D831235C7A90E022FF3E508240299
:1034A000F508E5093400F5098A828B83A3A3A3E01C
:1034B000A2E52274041217317F0A02185D74EC121F
:1034C000178B8C108D11EA2405F50CEB122ADF7591
:1034D0000F00EA2402F50AEB1235AE850A82F58365
:1034E0001233591208848A088B09EA4509700302CD
:1034F00035A0750E008071850C82850D83E0640116
:10350000704F8E828F83A3A31219B58E828F83A3EF
:10351000A3A3A3E0F512751300781212199EEE24EE
:1035200005F512EF3400F513781212199E12335379
:103530001208A27406121731E9F50F6014850C8287
:10354000850D83E4F0123E088510828511831235C3
:10355000C77C177D007900EEFAEFFB1211FC8E821A
:103560008F83E4F0A3F0050E9002F5E0F8E50EC3BA
:1035700098501EE50E75F017A4F8A9F0850882850D
:103580000983A3A3123E351235B4EC4D6003023417
:10359000F785088285098374FFF0A3F0E50F7006B4
:1035A000123353120518A90F02334AF50AEF3400FB
:1035B000F50B22A3E0FCA3E0FD228E828F83123E56
:1035C00010850E82850F83E8F0A3E9F022C082C047
:1035D000839002F1E06A7003A3E06B70067AF17BDE
:1035E0000280047A007B000228BAC082C08378007F
:1035F0008C828D83E06A7003A3E06B7010E875F035
:1036000003A4F8A9F0EC28FAED39FB8015088C82A8
:103610008D83A3A3A3E06A7003A3E06B60DF7A004D
:103620007B000228BA74F612178B12084E8A828B1E
:1036300083E582458370067A007B008007A3A3A3FD
:10364000A3123359023CB974F212178BE9FE740EBF
:103650001217671236A27410121767123B1A8C8267
:103660008D83E064027036A3123E16F50CA3E0F9D8
:10367000A80C74026870037429697021750C0275B6
:103680000D00780C12199E780812199E780A1219EA
:103690009EEEF91208C674061217318002790102F3
:1036A0003D3DE0F50AA3E0F50B2274E812178B7498
:1036B000FB12171BE9851882851983F08A168B1770
:1036C000ECFEEDFF751000741D121767123E0C74AE
:1036D0001D1217671235C78E828F83A3A3A3E0A2A2
:1036E000E4502D741D1217671233591208908A8204
:1036F0008B83E58245837003023AEB790AEEFCEF97
:10370000FDAA16AB17121789E9F5106003023AEE0D
:10371000741F121767123B1A74211217671236A210
:103720007423121767E0F50EA3E0F50F8E828F83E6
:10373000E064026003023A99A3123E0C8508828578
:103740000983A3858212858313EE2406122ADC885E
:10375000828983E0FAA3E0F9EA2400F514E439F55C
:10376000157814121A280100002801288E37070046
:10377000022853380328C03700298A390129B5396E
:103780000229563903298A390429343A993AE50E2F
:10379000450F6003023A94850C82850D83123B0F1E
:1037A000FAE9FB8A828B83E0850A82850B83123BD0
:1037B0004512199E8A828B83A3E0FCA3E0023A1E85
:1037C000E50E450F6003023A94850A82850B8374E7
:1037D00001F0123B22850882850983F07C007D0080
:1037E0008E828F83A3A3A3A3E02401FAA3E0340075
:1037F000FB120782EA4B60418A828B83E02402F845
:10380000850A82850B83E028F0EA2404F8EB340073
:10381000F988828983E0851282851383123B5712CF
:103820003B4512199E8A828B831235B3E508240327
:10383000FAE5093400FB023A23850A82850B83E00E
:103840002404F07C047D007900AA12AB131211FC51
:10385000023AEEE50E450F6003023A94123B22FE57
:10386000A3E0FF850A82850B837404F0EE8508824D
:10387000850983F0EF851282851383F07403121794
:1038800067AC82AD83EEFAEFFB1207828A0C8B0DD8
:10389000EA450D70030239378A828B83A3A312276E
:1038A000CA740112176785820E85830F780E12196C
:1038B0009E74051217671219B57CFF7DFF120788E9
:1038C00074041217318B0FEA450F7033850C828513
:1038D0000D83123AFA12199E850C82850D83A3126C
:1038E00019B57C027D007AF67B811205B47404124E
:1038F0001731E9700A740112176774FFF0A3F08E94
:10390000828F83E064027039750C02750D00780CAB
:1039100012199E8E828F831235B3E5082404FAE5CE
:10392000093400FB1211E47402121731850A8285F2
:103930000B83E0240280097401121767EEF0A3EFF5
:10394000F07401121767123B0BF07401121767A392
:10395000123B03023A8EE50E450F6003023A94854E
:103960000C82850D831235B4AA16AB171208BA85DE
:103970000A82850B837402F0EA850882850983F048
:10398000851282851383EB023A91E50E450F6003A1
:10399000023A94123B22F8A3E0F9850A82850B8350
:1039A0007402F0E8850882850983F0E98512828532
:1039B0001383023A91850C82850D831233591211BB
:1039C000DEEAFC8C82A882C3950EE4950F405FE886
:1039D000650E7002E50F70047C00802285188285D8
:1039E0001983E0FAE50E2AFAE50F3400FBC3EA98E2
:1039F000EB94005003E08005E50ECCC39CFCEC8505
:103A00000A82850B83F08C0A750B00780A12199EC6
:103A1000850C82850D83E0250EFCA3E0350FFDAA01
:103A200008AB091211E47402121731023AEE751054
:103A300007023AEEE50E450F705A850C82850D831C
:103A4000123E0C850A82850B8374071227D6123B1F
:103A5000031227D6A3E0851282851383F0E824029F
:103A6000FAE93400FB8A828B83123B03123B321249
:103A70003B0BA3123B3B123B14F0E82405F8E9345E
:103A800000F988828983123B14A3123B57A3A3A396
:103A9000A3F0805A75100B8055741D1217671233EE
:103AA0005912084E8A828B83E5824583603D123E1F
:103AB0000C880C890DE8450D6031780E12199E783E
:103AC0000A12199E780812199E7406121767E0F9F7
:103AD000EEFCEFFDAA16AB17850C82850D8312173D
:103AE000897406121731E9F510800375100EA910BC
:103AF00074051217317F1002185DE0F50E750F0086
:103B0000780E22E085088285098322123B61221209
:103B10003E10E822123B61A3A322E0F508A3E0F5E2
:103B20000922850C82850D83E0F8A3E0F583888265
:103B3000E022A3A3F08A828B83A322F08882898368
:103B4000A3A3A3A322F08A828B83123B4E22E0F52B
:103B50000A750B00780A22F088828983A3123B61E0
:103B600022E0850882850983A3A32274EE12178BB5
:103B700074FE12171B8A0A8B0BECFAEDFB741412FD
:103B80001767E0F510A3E0F5117416121767E0FE51
:103B90007418121767E0F50EA3E0F50F85188285FB
:103BA0001983AC82AD831207828A0C8B0DEA450D16
:103BB000604985188285198312335912084E8A820A
:103BC0008B83E5824583602FA3A3123B1AE508454A
:103BD000096024780E12199E781012199EEEF9AC25
:103BE0000CAD0DAA0AAB0B850882850983121789D3
:103BF00074041217318006790E80027901022FF3C6
:103C000074F612178B74FE12171B740C12176712BE
:103C10003B0F851882851983F07401121767E9F04C
:103C2000E4F508F509780812199E7508027808125B
:103C3000199E740412176785820885830978081213
:103C4000199E1208A27406121731740212173180DD
:103C50006874F712178BEAFEEBFF89087C287D0356
:103C60001208BAEA5402600BA908EEFAEFFB120739
:103C700076800279010226D274F612178B74FF6ADD
:103C8000700374FF6B70168C828D83123CBEE4F05F
:103C90008C828D83A3A3A3123CBEA3801812088A32
:103CA0008A088B09A808A909E849600D88828983D8
:103CB00074FF1227D4A3A3E4F07F0202185D74FFFF
:103CC000F0A3F08C828D83A3A32274F612178B12BB
:103CD000088A8A828B83E58245836006A3A3E0FA83
:103CE00080027A007B0080D174F212178B8A088BD5
:103CF00009ECFEEDFF740E121767E0F50A12088A50
:103D00008A0C8B0DA80CA90DE8497026EEFCEFFD7E
:103D10007AFF7BFF12088A8A0C8B0DA80CA90DE88C
:103D20004970047911801688828983E508F0A3E53B
:103D300009F088828983A3A3E50AF079007F06024F
:103D4000185D74EE12178BEAFEEBFF8C088D098963
:103D50000C7414121767123E0C7416121767123384
:103D600059750D00E8496003023E007402650C605D
:103D700003023DFB7412121767123E16FCA3E0F912
:103D8000EC2400F50EE439F50FEAF4F8EBF4F9EC65
:103D900058F8E50F59F9E849705CE5082406F8ED94
:103DA0003400F9880A890B8882F583123E211208B3
:103DB000BA8A108B11E50E65107004E50F6511606D
:103DC00042780E12199E850A82850B83123E2112BB
:103DD00008C07402121731E9F50D7027780E121918
:103DE0009E850882850983A3A3123E1F1208D27400
:103DF00002121731800D750D808008750D0D80033E
:103E0000750D0BA90D0234B88E828F83123E1022DD
:103E1000E0F8A3E0F922123E1088828983E022A311
:103E2000A3E0FCA3E0FDEEFAEFFB223400F50D85E4
:103E30000C82F58322E028FEA3E039FF8E828F8377
:103E40002274F212178BEAFEEBFF890B7401650BEB
:103E5000600E7402650B706A7901120A8EE9706255
:103E6000EEFAEFFB1208848A088B09EA45096047DD
:103E7000750A00800B7C177D0079001211FC050A81
:103E80009002F5E0F8E50AC3985021E50A75F017AD
:103E9000A4F8A9F0850882850983A3A3E028FAA3E2
:103EA000E039FB8A828B831228C170C9850882851C
:103EB000098374FFF0A3F07C287D03EEFAEFFB1278
:103EC00008B4023D3D74F212178B8A088B09ECFE90
:103ED000EDFF740E1217671236A2900B00E0F4602B
:103EE0003D7A097B00121208EA4B60328A828B838A
:103EF00074B1F0A3E4123B34A3123B32A3E508F003
:103F0000A3E509123F21EEF0A3EF123F21A3A3E5A1
:103F10000AF0A3E50BF0900B00E0F9121214023D39
:103F20003DF08A828B83A3A3A3A3A322C082C08374
:103F30009061907404F0A37448F0A37402F090614F
:103F4000807440F09061BC7403F09061877419F044
:103F5000906265741BF0906249E0C3941390619C79
:103F6000400A7409F090606674018007740DF09047
:103F70006066E4F090619A7433F0A37455F0906138
:103F8000A0743AF090054EE064017009C29190036C
:103F9000B5746780059003B57461F090268EE49344
:103FA000906186F0902688E493F46027E493540FA0
:103FB000F8906185E0686012E5C654804449F5C612
:103FC000E59E547F644970F8E8F053C680E59E543E
:103FD0007F70FA7905120DD002415AC082C083E584
:103FE000A8F853A87E906181E4F0A3F0A3F0C2BAD0
:103FF000539AFEC289759B00C2C275E90075910093
:1040000075BF0075A91175B905906181F0A374C0E1
:10401000F0A3E4F0D2BA439A0174805842A8024156
:104020005AC082C08374F812171B9003B3E0F8A340
:10403000E0F9E849700302414F9003B3E054406057
:10404000237908851882851983AA82AB83120C44D0
:10405000851882851983AA82AB8312093E9003B327
:10406000E054BFF0E054806010790C7A747B051244
:104070000C449003B3E0547FF0E0A2E05031906133
:104080009A7433F0A37455F09061A0743AF09005DF
:104090004EE064017009C2919003B5746780059089
:1040A00003B57461F01209449003B3E054FEF0E0EC
:1040B0005402603190619A743FF0A3745AF0906199
:1040C000A0747FF090054EE064017009D2919003D6
:1040D000B5747180059003B5746AF01209449003B9
:1040E000B3E054FDF0E05404601390268CE4939008
:1040F0006186F012094A9003B3E054FBF0E05408E3
:10410000601390268DE493906186F012094A900323
:10411000B3E054F7F0E05410601390268EE49390CF
:104120006186F012094A9003B3E054EFF0E05420A6
:10413000600A12094A9003B3E054DFF0A3E054018F
:10414000600D120B6C1209509003B4E054FEF07431
:104150000812173102415AF0A3F0D083D082020135
:104160001F74EC12178B74F412171B8518828519B3
:1041700083AC82AD837583817582DC740412162E44
:1041800090268C93F460030242ED907808E0C3948B
:104190000250030242CD7404121767AC82AD8375DE
:1041A000838175827E740812162E85188285198384
:1041B0008582128583137404121767AC82AD8375F0
:1041C0000EFF750FFF7FFF7E00750C48750D788020
:1041D0001574086E700302426174096E7003024226
:1041E00061740A6E607B850C82850D8378081215D8
:1041F000D38C828D83A909E50AC9F88810741878D0
:1042000008121501E5104508F8C3E098A3E0998568
:104210000C82850D8378081215D340188C828D830B
:1042200074187808121501E5104508F8E0C398F8ED
:10423000A3E0801C74187808121501E5104508FAEF
:10424000E9FB8C828D83E0F8A3E0F9EAC398F8EBF0
:1042500099F9C3E8950EE9950F5006880E890FEE7F
:10426000FF0EE50C2404F50CE50D3400F50DEEC34E
:10427000941350030241D174FF650E700474FF65FE
:104280000F60238F087402780812170874482508F5
:10429000F58274783509F58378081215D385128272
:1042A000851383E508F0EC2402FCED3400FD851253
:1042B00082851383A3858212858313740C1217677A
:1042C000E5826C7003E5836D60030241BF750801F0
:1042D000750900780812199E7402121767AC82AD36
:1042E000837AA37B091210E27402121731740C1244
:1042F00017317F0C02185DC082C0839061AE746874
:10430000F0A3746AF090624574FBF0A304F053F4D8
:10431000FD43FE0290054E7401F09061A0E0643A06
:1043200090619A70237433F0A37455F09061A07477
:104330003AF0740164017009C2919003B57467800A
:10434000289003B574618021743FF0A3745AF090F3
:1043500061A0747FF0740164017009D2919003B57B
:10436000747180059003B5746A0241597F08021880
:104370005DC082C083900500E06401700A9005056D
:10438000E06004790C8002790002415AC082C08347
:1043900075E1F1900503E0605B14600914605F143F
:1043A000605714705E120B7E9004F9E0F97AFA7B84
:1043B00004120D527AD67BBE7C897D8E120D887ACE
:1043C000557B557C557D00120D5E900504E0F91279
:1043D0000D6A7901120DC49004F7E0F8A3E0C82437
:1043E00016F582E83400F5837496F0A3740BF07927
:1043F0000002415A120B8480AF120B8A80AA120B62
:104400009080A5791280EA74F012178B75D90D90FF
:1044100004E4E0A2E0E4331313F89004F9E0C433B9
:104420003354C0484401F5D978F7790488828983E8
:10443000A3A3A3E0F5D988828983A3A882A983E8EE
:1044400064FD7003E9640470E378E4790488828988
:1044500083A3E0F5D988828983A3A882A983E8642D
:10446000EA7003E9640470E575E1959004E4E0F90D
:104470007AE57B04120D58900B227430F0A3740B74
:10448000F0A3748CF0A3740CF0A3748CF0A3740CE0
:10449000F0A3748CF0A3740CF0A37436F0A3740B27
:1044A000F0A3748CF0A3740CF0A3744EF0A3740BFF
:1044B000F0900B30748CF0A3740CF0A3748CF0A308
:1044C000740CF0A3748CF0A3740CF0A3748CF0A3A0
:1044D000740CF0A3748CF0A3740CF0A3748CF0A390
:1044E000740CF0900503E064019004F77012E0F89A
:1044F000A3E0F5838882A3A37508007509088010DE
:10450000E0F8A3E0F5838882A3A375080475090089
:10451000750A00750B00780812154C750CFF750DA7
:10452000FF750EFF750F007808790C12159A90042C
:10453000F7E0F8A3E0C8240EF582E83400F58378AC
:10454000081215E29004F7E0F8A3E0C82414F582FD
:10455000E83400F5837413F09003B17402F0024361
:104560006C74F712178B900509E02407F5D99004B5
:10457000F9E0C4333354C0F5D978F77904888289D7
:1045800083A3A3A3E0F5D988828983A3A882A98302
:10459000E864FD7003E9640470E3900509E0601FBE
:1045A00078F77904FAE82413F582E93400F583E01A
:1045B000F5D988828983A3A882A9831AEA70E69034
:1045C0000529E02407F5D99004F9E0C4333354C039
:1045D0004404F5D978F7790488828983A3A3A3E0FA
:1045E000F5D988828983A3A882A983E864FD700332
:1045F000E9640470E3900529E0601F78F77904FA14
:10460000E82433F582E93400F583E0F5D98882891E
:1046100083A3A882A9831AEA70E675E195900B221C
:10462000743CF0A3740BF0A3748CF0A3740CF0A38F
:10463000748CF0A3740CF0A3748CF0A3740CF0A32E
:104640007436F0A3740BF0A3748CF0A3740CF0A375
:10465000744EF0A3740BF0900B30748CF0A3740CB8
:10466000F0A3748CF0A3740CF0A3748CF0A3740CFE
:10467000F0A3748CF0A3740CF0A3748CF0A3740CEE
:10468000F0A3748CF0A3740CF09004F7E0F8A3E0AE
:10469000C8240EF582E83400F58374FFF0A3F0A37C
:1046A000F0A3F09004F7E0F8A3E0C82414F582E842
:1046B0003400F5837412F09003B17401F0FF021816
:1046C0005D74F712178B900509E02407F5D9900463
:1046D000F9E0C4333354C04402F5D978F77904883B
:1046E000828983A3A3A3E0F5D988828983A3A882C2
:1046F000A983E864FD7003E9640470E3900509E0B0
:10470000601F78F77904FAE82413F582E93400F59C
:1047100083E0F5D988828983A3A882A9831AEA70E5
:10472000E675E195900B227448F0A3740BF0A37426
:1047300048F0A3740BF0A37448F0A3740BF0A374B7
:1047400048F0A3740BF0A37448F0A3740BF0A374A7
:1047500048F0A3740BF0A3744EF0A3740BF0900B0D
:1047600030748CF0A3740CF0A3748CF0A3740CF070
:10477000A3748CF0A3740CF0A3748CF0A3740CF0ED
:10478000A3748CF0A3740CF0A3748CF0A3740CF0DD
:104790009004F7E0F8A3E0C8240EF582E83400F5B1
:1047A0008374FFF0A3F0A3F0A3F09004F7E0F8A364
:1047B000E0C82414F582E83400F5837414F0900303
:1047C000B17404F0024A8874F712178B900509E05F
:1047D0002407F5D99004F9E0C4333354C04406F5F6
:1047E000D978F7790488828983A3A3A3E0F5D988CF
:1047F000828983A3A882A983E864FD7003E9640425
:1048000070E3900509E0601F78F77904FAE8241353
:10481000F582E93400F583E0F5D988828983A3A87D
:1048200082A9831AEA70E6900529E02407F5D99059
:1048300004F9E0C4333354C04404F5D978F779045B
:1048400088828983A3A3A3E0F5D988828983A3A85A
:1048500082A983E864FD7003E9640470E39005298C
:10486000E0601F78F77904FAE82433F582E9340030
:10487000F583E0F5D988828983A3A882A9831AEAFF
:1048800070E675E195900B227442F0A3740BF0A3CF
:10489000748CF0A3740CF0A3748CF0A3740CF0A3CC
:1048A000748CF0A3740CF0A3748CF0A3740CF0A3BC
:1048B000748CF0A3740CF0A3744EF0A3740BF090FE
:1048C0000B30748CF0A3740CF0A3748CF0A3740CF4
:1048D000F0A3748CF0A3740CF0A3748CF0A3740C8C
:1048E000F0A3748CF0A3740CF0A3748CF0A3740C7C
:1048F000F09004F7E0F8A3E0C8240EF582E8340055
:10490000F58374FFF0A3F0A3F0A3F09004F7E0F8B0
:10491000A3E0C82414F582E83400F5837415F09000
:1049200003B17403F0024A88C082C0839004F7E0A8
:10493000F8A3E0C82406F582E83400F583E40241D8
:104940005774F712178B9003DFE0F875F003A4C8D3
:10495000AAF02AF974E128F8740339F9E82405FA71
:10496000E93400FB8A828B83E0FCA3E0FD88828926
:1049700083A3A3A3A3A3A3A3A3A3ECF0A3EDF08815
:10498000828983A3A3A3A3A3A3A3E024FFF8A3E0A6
:1049900034FFF98A828B83E8F0A3E9F0024A887435
:1049A000F712178BEAFEEBFF9061D0E06003024A3A
:1049B0007C75D90E75D90375D904EE248BF582EF79
:1049C0003400F583E5822408F8E5833400F9E0F546
:1049D000D9A3E865827003E9658370F2EE2483F55C
:1049E00082EF3400F583E5822404F8E5833400F98E
:1049F000E0F5D9A3E865827003E9658370F275E19B
:104A0000957908EE248BFAEF3400FB120C38790408
:104A1000EE2483FAEF3400FB120C387C00EEF8EF42
:104A2000F9ECFAC3E49AFA95E0FBEE2AFAEF3BFBC5
:104A3000EA248AF582EB3400F583E0C0E0E824AA9A
:104A4000F582E93400F583D0E0F00C88828983A3F5
:104A5000A882A983ECC3940840C7EE246FF582EFC7
:104A60003400F583E0F8A3E0F9EE2471F582EF3429
:104A700000F583E8F0A3E9F079018002790080086D
:104A8000F0EEA2E092AF79007F0102185DC082C013
:104A90008375D90275D90375D90575E195EA246F37
:104AA000F582EB3400F583E0F8A3E0F9EA2471F530
:104AB00082EB3400F583E8F0A3E9F0790102415A72
:104AC00074F612178BEAFEEBFF9005547406F0752E
:104AD0000854750905780812199E7C017903120C97
:104AE00080740212173175D90675D9037582547511
:104AF0008305E0F5D9A3E58264597004E583640574
:104B000070F075E1959003B1E06408701EEE246FBB
:104B1000F582EF3400F583E0F8A3E0F9EE2471F5B7
:104B200082EF3400F583E8F0A3E9F07901024D8EBD
:104B300074F612178BEAFEEBFF9061D0E070667896
:104B400001900554740BF09003B1E064077019757F
:104B50000854750905780812199E7C017903120C16
:104B60008074021217317805740128F5D975D903BC
:104B7000758254758305E8FAE0F5D9A31AEA70F84E
:104B800075E195EE246FF582EF3400F583E0F8A32C
:104B9000E0F9EE2471F582EF3400F583E8F0A3E943
:104BA000F0790180027900024D8E74F712178BEABA
:104BB000FEEBFF75D90375D90375D90DEE24DDF52C
:104BC00082EF3400F583E0F5D975E1957904120D93
:104BD0008EEE246FF582EF3400F583E0F8A3E0F960
:104BE000EE2471F582EF3400F583E8F0A3E9F07963
:104BF00001024A8874F612178BEAFEEBFF9061D02F
:104C0000E0F87480C398FAEE2482F582EF3400F560
:104C100083E06004780480027800E8240BF8EAC39B
:104C2000985003024CB97D09900554EDF0EE24E252
:104C3000F8EF3400F97A557B057C0888828983E097
:104C40008A828B83F088828983A3A882A9838A823F
:104C50008B83A3AA82AB831CEC70E0EE2482F582E6
:104C6000EF3400F583E0601D750854750905780878
:104C700012199E7C097903EEFAEFFB120C80740284
:104C80001217317D0D74012DF5D975D90375825434
:104C90007583058D08E0F5D9A31508E50870F6754C
:104CA000E1957904120D8EEE241DF582EF3400F5A6
:104CB00083E4F0A3F0790180027900024D8E74F64E
:104CC00012178BEAFEEBFF9061D0E0F87480C39876
:104CD000FAEE2482F582EF3400F583E06004780474
:104CE00080027800E82408F8EAC3985003024D8C4B
:104CF0007806900554740CF09003CEE0900555F0C2
:104D00009003CFE0900556F09003D0E0900557F067
:104D10009003D1E0900558F09003D2E0900559F04F
:104D2000EE2482F582EF3400F583E0601B750854B1
:104D3000750905780812199E7C067903EEFA120CA3
:104D4000807402121731780A740128F5D975D903D5
:104D50007582547583058808E0F5D9A31508E50820
:104D600070F675E1957904120D8EEE246FF582EFE1
:104D70003400F583E0F8A3E0F9EE2471F582EF3416
:104D800000F583E8F0A3E9F07901800279007F0261
:104D900002185D74F612178BEAFEEBFF9061D0E00B
:104DA000F87480C398FAEE2482F582EF3400F5831C
:104DB000E06004780480027800E82404F8EAC398EC
:104DC0005003024E6D7802900554E8F0EE24F4F59D
:104DD00082EF3400F583E0900555F0EE2482F582F1
:104DE000EF3400F583E0601B7508547509057808F9
:104DF00012199E7C027903EEFA120C8074021217CB
:104E0000317806740128F5D975D9037582547583F4
:104E1000058808E0F5D9A31508E50870F675E19551
:104E2000EE2473F582EF3400F583E4F0EE247FF591
:104E300082EF3400F583E4F0EE241DF582EF3400B8
:104E4000F583E4F0A3F07904120D8EEE240DF582C3
:104E5000EF3400F583E0F8A3E0F9EE2471F582EF7A
:104E60003400F583E8F0A3E9F079018002790002CB
:104E70004D8E74F612178B9061D0E0F87480C39851
:104E8000FCEA2482F582EB3400F583E060047804C8
:104E900080027800E82404F8ECC398405B79029023
:104EA00005547407F0EA24F5F582EB3400F583E04D
:104EB000900555F0EA2482F582EB3400F583E0603A
:104EC00018750854750905780812199E7C02091294
:104ED0000C8074021217317906740129F5D975D93D
:104EE00003758254758305E9F8E0F5D9A318E870D5
:104EF000F875E195790180027900024D8E74F51202
:104F0000178BE9FCA2AFE433F50AC2AF7D00800144
:104F10000DEA246EF582EB3400F583E0F8EDC398DA
:104F2000501A8D08EA2508F8EB3400F9E8246AF5F0
:104F300082E93400F583E06C70D68024EA246EF8B0
:104F4000EB3400F9E0FEEA2EFAEB3400FBEA246AC7
:104F5000F582EB3400F583ECF088828983E004F07D
:104F6000E50AA2E092AF7F0302185D74F612178B78
:104F7000A2AFE433FDC2AFEA246EF582EB3400F554
:104F800083E014F07C0060368C08EA2508F8EB34E6
:104F900000F9E8246BF582E93400F583E0C0E0E82D
:104FA000246AF582E93400F583D0E0F00CEA246E3F
:104FB000F582EB3400F583E0F8ECC39840CAEA24AC
:104FC0006DF582EB3400F58374FFF0EA2469F58215
:104FD000EB3400F583E4F0EDA2E092AF024D8EC019
:104FE00082C083E5A8F8C2AFEA246AF582EB3400F8
:104FF000F583E9F0EA2469F582EB3400F583E4F007
:10500000E8A2E7A2E792AF02415A74F312178BEAC3
:10501000FEEBFFECFAEDFB8A828B83A3A3A3A3E054
:10502000541FF0EE2436F582EF3400F583E4F0F5FA
:105030000AEEFCEFFD8A828B83E0C0E0EC245DF594
:1050400082ED3400F583D0E0F0750B00E50A3333D0
:105050003354F8F50C8A828B83E0F508750900E576
:105060000B78081216E9E508A2E0502FEE2436F876
:10507000EF3400F988828983E0F508EE2508F50809
:10508000EF3400F509E5082438F582E5093400F528
:1050900083E50CF088828983E004F0050B050CE5BC
:1050A0000BC3940840AF050A8A828B83A3AA82AB04
:1050B000838C828D83A3AC82AD83E50AC3940550B3
:1050C000030250357F0502185D74F712178B9003A9
:1050D000DDE0640170030252277A009003E3E06090
:1050E000030252277401F0A3E4F0A3F090044304F8
:1050F000F0900448F09003E6E4F0A3F0A3F0A3F0EE
:105100009003F004F0900416E4F09003F9F0A3F09B
:10511000A3F0A3F0A3F0A3F0A3F0900460F0900438
:1051200054F09004497480F0A3E4F090044FF090A0
:1051300004CBF0A3F0A3F0A3F0A3F0A3F0A3F0A39B
:10514000F09004D4F0900463F09004B3F0A3F0A3C3
:10515000F0A3F0A3F0A3F0A3F0A3F0A3F0A3F090CA
:1051600004BFF09004C1F09004BDF09004D7F0A308
:10517000F0A3F0A3F0A3F0A3F0A3F0A3F078DD79FF
:1051800003E8246EF582E93400F58374FFF00A88A1
:10519000828983A3A882A983EAC3940440E37ADDC9
:1051A0007B0378EB790488828983E0C0E0EA24619C
:1051B000F582EB3400F583D0E0F088828983A3A8E0
:1051C00082A9838A828B83A3AA82AB83E864F0706E
:1051D00003E9640470D07ADD7B0378C479038882A4
:1051E0008983A3E0C0E0EA24E6F582EB3400F5838E
:1051F000D0E0F088828983A3A882A9838A828B83E6
:10520000A3AA82AB83E864CC7003E9640370CF90F7
:1052100003DDE004F0640170089003E5E09003DF33
:10522000F07AE17B0380047A007B00024A88C08226
:10523000C0839003E4E4F09003E3F09003DDF0A377
:10524000F0A374FFF075E1F102415AC082C0837887
:105250000079009003E4E0600478E17903888289B2
:1052600083A3A3A3A3E0F902415A74F612178BEAB1
:10527000FEEBFFEE2463F582EF3400F583E0F8A344
:10528000E0F9E849700302530FEE2463F8EF3400AD
:10529000F97A007B00A2AFE433F508C2AF888289B7
:1052A00083E0FCA3E0FDEC4D603A88828983E0FA5C
:1052B000A3E0FB8A828B83E0FCA3E0FD88828983E4
:1052C000ECF0A3EDF08A828B83E4F0A3F08882896E
:1052D00083E0FCA3E0FDEC4D700A88828983A3A3E0
:1052E000E4F0A3F0E508A2E092AF1212629004F19C
:1052F000E004F09004F2E004F0EE2463F582EF3471
:1053000000F583E0F8A3E0F9E84960030252898ED2
:10531000828F83A3A3A3E0600F8E828F83A3A3A3B6
:10532000E4F09003DEE014F09003DDE014F070068A
:105330009003DF74FFF08E828F83A3A3E4F09004C8
:10534000F0E0700D9003DEE0640170057900120D4D
:1053500070EEFAEFFB120CB0024D8E74F712178B41
:10536000EAFEEBFF8E828F83A3A3A3A3E0FA7B0068
:10537000120992EEFAEFFB120C02120C98024A8804
:10538000C082C08378C4790388828983A3E4F088CB
:10539000828983A3A882A983E864CC7003E96403AB
:1053A00070E69003C5740102415974F612178BEA36
:1053B000FEEBFFEC2403F8ED3400F988088909ECD2
:1053C0002407F8ED3400F9E8FCE9FD8C828D83E0D8
:1053D000F8A3E0F9850882850983E0FAA3E0FB12CF
:1053E0001690EE240DF582EF3400F583E8F0A3E982
:1053F000F08C828D83E0F8A3E0F98508828509832B
:10540000E0FAA3E0FB1216908B09EA45096013EE5F
:10541000240DF582EF3400F583E02401F0A3E0349D
:1054200000F0024D8E74F612178BEAFEEBFFEE24AD
:105430002EF582EF3400F583E0FCA3E0FD780079DF
:10544000FAECFAEDFB121690EE246FF582EF3400C1
:10545000F583E8F0A3E9F0780079FAECFAEDFB12B5
:1054600016908B09EA45096013EE246FF582EF343C
:1054700000F583E02401F0A3E03400F0024D8E74C7
:10548000EC12178BEAFEEBFF741412176778081200
:1054900015D3120D348A0C8B0D8C0E8D0F751002E6
:1054A000751100751200751300780C7910121539FA
:1054B0007510FF7511FF7512FF780C791012159A8F
:1054C000780C12199A8E828F83E0F8A3E0F5838816
:1054D00082A3A31215F11223A97404121731E960F3
:1054E000030255E38E828F83E02402F8A3E03400A8
:1054F000F9E8FAE9FB8A828B83780812155F8A82C1
:105500008B837508FF7509FF750AFF750B00780816
:105510001215C0EE240BF582EF3400F583C082C073
:10552000838E828F83A3A3A3A3A3E02401F8A3E027
:105530003400F9D083D082E0687003A3E06970057D
:1055400079010255E58E828F83A3A3A3A3A3A3A30E
:10555000E02401F0A3E03400F0EE2473F582EF3490
:1055600000F583E064017036EE2474F582EF3400B8
:10557000F583E0F8A3E0F98E828F83A3A3A3A3A30E
:10558000A3A3E0687003A3E0697013EE2474F582AE
:10559000EF3400F583E02401F0A3E03400F0EE24C2
:1055A0007FF582EF3400F583E064017036EE2480ED
:1055B000F582EF3400F583E0F8A3E0F98E828F8363
:1055C000A3A3A3A3A3A3A3E0687003A3E06970133C
:1055D000EE2480F582EF3400F583E02401F0A3E0AF
:1055E0003400F079000242F274F612178BE9FEECF7
:1055F000FFEA2462F582EB3400F583E06401600386
:105600000256919061D0E0F508EA2482F582EB34ED
:1056100000F583E060047804800278007480C3950C
:1056200008FC95E0FDEF28F8E43400F9E82402F8DE
:10563000E93400F9EC98ED99A2D265D033404E746C
:105640000A121767E0F508A3E0F509EA2482F5825B
:10565000EB3400F583E06015780812199EEFFCEE3C
:10566000F9120C80740212173174042FFF74012F89
:10567000F5D98ED9EF600F850882850983F8E0F5AA
:10568000D9A318E870F875E195790080067907804C
:105690000279FF024D8E74F712178BA2AFE433FE2E
:1056A000C2AF8A828B83E0F8A3E0F9E8498A828B53
:1056B00083600AA3A3E0F8A3E0F5838882ECF0A35B
:1056C000EDF08A828B83A3A3ECF0A3EDF08C828DA6
:1056D00083E4F0A3024A8074F712178BE96021F883
:1056E0008C828D83E08A828B83F08C828D83A3AC45
:1056F00082AD838A828B83A3AA82AB8318E870E091
:10570000ECFAEDFB024A8874F412178B907803E0F0
:1057100064427055900553E014F0704DC2AF1257BB
:105720002100782AD0E0F618D0E0F6E59F54077003
:10573000057509FF800375097FC4C0E07829E6F587
:105740000808E65509F509740B78081216F9D0E037
:105750002508F8906270E0A2E740F8E8C333906251
:1057600072F0906270E0D2E0F09003DFE0F470033A
:10577000025B01E0F875F003A4C8AAF02AF974E10D
:1057800028FE740339FFEE2401F582EF3401F5831E
:10579000E0F8A3E0F9E849601EEE2401F582EF3459
:1057A00001F583E0FAA3E0FBEE2400F582EF34017B
:1057B000F583E0F91212388E828F83A3A3A3A3A3EB
:1057C000A3A3E0F8A3E0F98E828F83A3A3A3A3A3EE
:1057D000E8F0A3E9F0906054E09003B8F0906055D1
:1057E000E09003B9F0906056E09003BAF0906057F3
:1057F000E09003BBF0906058E09003BCF0906059DB
:10580000E09003BDF090605AE09003BEF090605BC2
:10581000E09003BFF090605CE0FC9003C0F090600B
:105820005DE0FB9003C1F090605EE0FD9003C2F08C
:1058300090605FE0FA9003C3F09003BEE08C08250F
:1058400008F8E43400F98D08E82508F8E93400F98F
:105850008B08E82508F8E93400F98A08E82508FAF1
:10586000E93400FBEE24F6F582EF3400F583E02AFC
:10587000F0A3E03BF08C08EE24F8F582EF3400F55D
:1058800083E02508F0A3E03400F0EE24FAF582EF7F
:105890003400F583E02401F0A3E03400F0EE24FEB0
:1058A000F582EF3400F583E0F8A3E0F9E8496042BF
:1058B000906000E0C333FCE433FDE82CF582E93D61
:1058C000F583E02AF0A3E03BF0906000E0FA90035B
:1058D000C0E0FCEAC333FAE433FBE82AF8E93BF919
:1058E000E8244AF582E93400F583E02CF0A3E034A3
:1058F00000F09003BEE070119003C1E0700BA3E0D4
:105900007007A3E070030259FE8E828F83A3A3A3C6
:10591000A3A3E0F8A3E0F9EE240DF582EF3400F53F
:1059200083E028F8A3E039F9EE240BF582EF340088
:10593000F583E8F0A3E9F0EE240FF582EF3400F5EB
:1059400083E4F0EE241CF582EF3400F583E064017B
:10595000701EEE2420F582EF3400F583E0F8A3E01A
:10596000F9EE241DF582EF3400F583E8F0A3E9F0A9
:105970009003B9E06052EE241CF582EF3400F58309
:105980007401F0EE2469F582EF3400F583E070389D
:10599000EE2473F582EF3400F583E0702BEE247F64
:1059A000F582EF3400F583E0701EEE2420F582EFDF
:1059B0003400F583E0F8A3E0F9EE241DF582EF341E
:1059C00000F583E8F0A3E9F0906062E07003025A0A
:1059D000B18E828F83E0F8A3E0F9E82406FCE93475
:1059E00000FDE82402FAE93400FB120D2E8E828FAE
:1059F00083E0F8A3E0C82412F582E8025AB79003C6
:105A0000C0E0603AEE240FF582EF3400F583E4F055
:105A1000EE241CF582EF3400F583E064017040EE63
:105A20002420F582EF3400F583E0F8A3E0F9EE24BA
:105A30001DF582EF3400F583E8F0A3E98020EE2421
:105A4000FCF582EF3400F583E02401F0A3E034009C
:105A5000F0EE241DF582EF3400F583E4F0A3F0EEC0
:105A6000240BF582EF3400F583E0F8A3E0F98E8291
:105A70008F83A3A3A3A3A3E0687003A3E0696003DB
:105A8000025970EE240FF582EF3400F583E06012C6
:105A90008E828F83A3A3A3A3A3E064057002A3E077
:105AA000600479088002793EEEFAEFFB120C088060
:105AB00050EE241DF582EF3400F583E4F0A3F0905E
:105AC00061C8E06006121D65E970F48E828F83A3C1
:105AD000A3A3E0602C9061C8E070069060607480C1
:105AE000F0EEFAEFFB120CF8E9640160147902EEB3
:105AF000FAEFFB121F12120CECE964016003120CA6
:105B0000987F0402185D53BFEF02011F74EC121757
:105B10008B9003DFE0F875F003A4C8AAF02AF974AB
:105B2000E128FE740339FF9061D0E07013EE246326
